:020000040000fa
:080000000002040000000000f2
:020000040000fa
:04000800cc02000026
:020000040000fa
:04000c00cc02000022
:020000040000fa
:04001000cc0200001e
:020000040000fa
:04001400cc0200001a
:020000040000fa
:04001800cc02000016
:020000040000fa
:04001c00cc02000012
:020000040000fa
:04002000cc0200000e
:020000040000fa
:04002400cc0200000a
:020000040000fa
:04002800cc02000006
:020000040000fa
:04002c00cc02000002
:020000040000fa
:04003000cc020000fe
:020000040000fa
:04003400cc020000fa
:020000040000fa
:04003800cc020000f6
:020000040000fa
:04003c00cc020000f2
:020000040000fa
:04004000cc020000ee
:020000040000fa
:04004400cc020000ea
:020000040000fa
:04004800cc020000e6
:020000040000fa
:04004c00cc020000e2
:020000040000fa
:04005000cc020000de
:020000040000fa
:04005400f81200009e
:020000040000fa
:04005800a0130000f1
:020000040000fa
:04005c00cc020000d2
:020000040000fa
:04006000cc020000ce
:020000040000fa
:04006400cc020000ca
:020000040000fa
:04006800cc020000c6
:020000040000fa
:04006c00cc020000c2
:020000040000fa
:04007000cc020000be
:020000040000fa
:04007400cc020000ba
:020000040000fa
:04007800cc020000b6
:020000040000fa
:04007c00cc020000b2
:020000040000fa
:04008000cc020000ae
:020000040000fa
:04008400cc020000aa
:020000040000fa
:04008800cc020000a6
:020000040000fa
:04008c00cc020000a2
:020000040000fa
:04009000cc0200009e
:020000040000fa
:04009400cc0200009a
:020000040000fa
:04009800cc02000096
:020000040000fa
:04009c00cc02000092
:020000040000fa
:0400a000cc0200008e
:020000040000fa
:0400a400cc0200008a
:020000040000fa
:0400a800cc02000086
:020000040000fa
:0400ac00cc02000082
:020000040000fa
:0400b000cc0200007e
:020000040000fa
:0400b400b80c000084
:020000040000fa
:0400b800cc02000076
:020000040000fa
:0400bc00cc02000072
:020000040000fa
:0400c000cc0200006e
:020000040000fa
:0400c400cc0200006a
:020000040000fa
:0400c800cc02000066
:020000040000fa
:0400cc00cc02000062
:020000040000fa
:0400d000cc0200005e
:020000040000fa
:0400d400cc0200005a
:020000040000fa
:0400d800cc02000056
:020000040000fa
:0400dc00cc02000052
:020000040000fa
:0400e000cc0200004e
:020000040000fa
:0400e400cc0200004a
:020000040000fa
:0400e800cc02000046
:020000040000fa
:0400ec00cc02000042
:020000040000fa
:0400f000cc0200003e
:020000040000fa
:0400f400cc0200003a
:020000040000fa
:0400f800cc02000036
:020000040000fa
:0400fc00cc02000032
:020000040000fa
:04010000cc0200002d
:020000040000fa
:04010400cc02000029
:020000040000fa
:04010800cc02000025
:020000040000fa
:04010c00cc02000021
:020000040000fa
:04011000cc0200001d
:020000040000fa
:04011400cc02000019
:020000040000fa
:04011800cc02000015
:020000040000fa
:04011c00cc02000011
:020000040000fa
:04012000cc0200000d
:020000040000fa
:04012400cc02000009
:020000040000fa
:04012800cc02000005
:020000040000fa
:04012c00cc02000001
:020000040000fa
:04013000cc020000fd
:020000040000fa
:04013400cc020000f9
:020000040000fa
:04013800cc020000f5
:020000040000fa
:04013c00cc020000f1
:020000040000fa
:04014000cc020000ed
:020000040000fa
:04014400cc020000e9
:020000040000fa
:04014800cc020000e5
:020000040000fa
:04014c00cc020000e1
:020000040000fa
:04015000cc020000dd
:020000040000fa
:04015400cc020000d9
:020000040000fa
:04015800cc020000d5
:020000040000fa
:04015c00cc020000d1
:020000040000fa
:04016000cc020000cd
:020000040000fa
:04016400cc020000c9
:020000040000fa
:04020800cc02000024
:020000040000fa
:04020c00cc02000020
:020000040000fa
:04021000cc0200001c
:020000040000fa
:04021400cc02000018
:020000040000fa
:04021800cc02000014
:020000040000fa
:04021c00cc02000010
:020000040000fa
:04022000cc0200000c
:020000040000fa
:04022400cc02000008
:020000040000fa
:04022800cc02000004
:020000040000fa
:04022c00cc02000000
:020000040000fa
:04023000cc020000fc
:020000040000fa
:04023400cc020000f8
:020000040000fa
:04023800cc020000f4
:020000040000fa
:04023c00cc020000f0
:020000040000fa
:04024000cc020000ec
:020000040000fa
:04024400cc020000e8
:020000040000fa
:04024800cc020000e4
:020000040000fa
:04024c00cc020000e0
:020000040000fa
:04025000cc020000dc
:020000040000fa
:04025400cc020000d8
:020000040000fa
:04025800cc020000d4
:020000040000fa
:04025c00cc020000d0
:020000040000fa
:04026000cc020000cc
:020000040000fa
:04026400cc020000c8
:020000040000fa
:04026800cc020000c4
:020000040000fa
:04026c00cc020000c0
:020000040000fa
:04027000cc020000bc
:020000040000fa
:04027400cc020000b8
:020000040000fa
:04027800cc020000b4
:020000040000fa
:04027c00cc020000b0
:020000040000fa
:04028000cc020000ac
:020000040000fa
:04028400cc020000a8
:020000040000fa
:04028800cc020000a4
:020000040000fa
:04028c00cc020000a0
:020000040000fa
:04029000cc0200009c
:020000040000fa
:04029400cc02000098
:020000040000fa
:04029800cc02000094
:020000040000fa
:04029c00cc02000090
:020000040000fa
:0402a000cc0200008c
:020000040000fa
:0402a400cc02000088
:020000040000fa
:0402a800cc02000084
:020000040000fa
:0402ac00cc02000080
:020000040000fa
:0402b000cc0200007c
:020000040000fa
:0402b400cc02000078
:020000040000fa
:0402b800cc02000074
:020000040000fa
:0402bc00cc02000070
:020000040000fa
:0402c000cc0200006c
:020000040000fa
:0402c400cc02000068
:020000040000fa
:0402c800cc02000064
:020000040000fa
:0402cc00cc02000060
:020000040000fa
:0402d000cc0200005c
:020000040000fa
:0402d400cc02000058
:020000040000fa
:0402d800cc02000054
:020000040000fa
:0402dc00cc02000050
:020000040000fa
:0402e000cc0200004c
:020000040000fa
:0402e400cc02000048
:020000040000fa
:0402e800cc02000044
:020000040000fa
:0402ec00cc02000040
:020000040000fa
:0402f000cc0200003c
:020000040000fa
:0402f400cc02000038
:020000040000fa
:0402f800cc02000034
:020000040000fa
:0402fc00cc02000030
:020000040000fa
:04030000cc0200002b
:020000040000fa
:04030400cc02000027
:020000040000fa
:04030800cc02000023
:020000040000fa
:04030c00cc0200001f
:020000040000fa
:04031000cc0200001b
:020000040000fa
:04031400cc02000017
:020000040000fa
:04031800cc02000013
:020000040000fa
:04031c00cc0200000f
:020000040000fa
:04032000cc0200000b
:020000040000fa
:04032400cc02000007
:020000040000fa
:04032800cc02000003
:020000040000fa
:04032c00cc020000ff
:020000040000fa
:04033000cc020000fb
:020000040000fa
:04033400cc020000f7
:020000040000fa
:04033800cc020000f3
:020000040000fa
:04033c00cc020000ef
:020000040000fa
:04034000cc020000eb
:020000040000fa
:04034400cc020000e7
:020000040000fa
:04034800cc020000e3
:020000040000fa
:04034c00cc020000df
:020000040000fa
:04035000cc020000db
:020000040000fa
:04035400cc020000d7
:020000040000fa
:04035800cc020000d3
:020000040000fa
:04035c00cc020000cf
:020000040000fa
:04036000cc020000cb
:020000040000fa
:04036400cc020000c7
:020000040000fa
:100400006f8620000e7724000e0188000000000097
:10041000000020000000e000020032000001200087
:1004200020028800140007006c0007000000e000b4
:1004300003003a0040432100010020000200370081
:100440000000200001002000810f70000100320038
:1004500014000700000020000000e000020032004d
:100460000000020000000000fc1302000000000079
:100470000040da000000fe004440a9000000200017
:100480000000e0000300320000002000a00188000e
:100490004440a800000006008a1f78008b1f7800e7
:1004a0000000060091018800800478000000eb0045
:1004b0001a003700e284440032a0b4009905ba0063
:1004c000e284440032a0b4009906ba00e2844400f9
:1004d00032a0b4000006eb00476fde00fd07b2005b
:1004e000636ce10003003a00ebff07000000eb0043
:1004f0000a003700606ce10004003a00005deb0088
:100500008b05e900fdff3e00040037006168e10053
:10051000010032000086eb000b00070019c7ba008b
:100520001905ba000e04e00003003a000a00e000da
:10053000e0ff3a0000000600fe07b2009e018800be
:100540008a047800f5ff3700395dba008b05e900b1
:100550000c003200295dba008b05e900080032006a
:100560000c00e00003003a00e284440032a0b40032
:10057000f5ff370019ddba008b05e900faff3a00f4
:100580008904e800e184440032a0b40000000600c1
:1005900076110400000000000040da000000fe00b8
:1005a0008460a900e7006000f2ff2800cc08dd00ad
:1005b0002305800003016100680060000281700073
:1005c00071ff2f0022058800a20480008280600055
:1005d00081007000a10488000000060000000500f2
:1005e00003f0a200889fbe008a9fbe008c1f780087
:1005f000fc000700030133006450e1004f003200ab
:100600006420e1005200320003826c0007003b00ce
:100610000905d0000306d000820f54000c065d00cf
:1006200002003900020032008901780003067800d8
:100630008582550004003d000003fd008103fd009c
:100640008502ea008b854200840f720002003b00a5
:1006500060001000e08018006011b8000005eb0099
:100660007a28e1000a00390006007800c75ddd0045
:10067000f707b200878075002d0037008281710076
:100680000a017800610560008180d1000080d300fc
:100690008502e900f9ff3b0006044000878448001a
:1006a00002003b0060041400e0841c000988a300e1
:1006b000070032008a81710082817100610164004b
:1006c0008904d1000884d3008b05e80017003700a7
:1006d0000978a30013003a000b00e0001300340077
:1006e0008b05e9000804440089844c000a44740026
:1006f0000978a3000d003a000b00e0000700340069
:100700008b05e9000804440089844c0001003a008c
:100710000b0020000978a300f7ff32000001eb0076
:1007200002003700828171000a0178007200070020
:100730000cf0a70001f0a000bb0037006420e1002e
:1007400002003a00838f6c00bb0033000801be003a
:100750000200be00b4003700889fbe008a9fbe0022
:100760008c1f78009f000700a600330003866c00f2
:100770006450e1002e0032006420e10033003200ba
:100780006150e1002f0032006120e10031003200b1
:1007900085855500eb07b000090020000804200003
:1007a000050037000804440089844c000a00310029
:1007b0000603430087834b000001530081815b00e7
:1007c000f8ff33000203be000800a0000804440044
:1007d00089844c00f6ff3900c639dd0083017300bf
:1007e00001003200130020008904d1000884d300e6
:1007f0000998a300050032000800a7000300a0002c
:100800008904d1000884d3008b05e8008904d10055
:100810000884d3000001eb000281d20036000700fb
:1008200001f0a1000cf0a70001f0a0007e0037004d
:100830006420e100800032000801be000200be001a
:10084000f7ff37006120e1007b0032006000b80054
:10085000f3ff37000000200001f82700f0ff370009
:1008600014002000ad0037000001be004800070062
:100870000470a70003f0a1006509b1001600320062
:100880000d0035006828e10006003500f0ff2f005c
:10089000f1ff27000300e00013003b0001002800e7
:1008a0000000050000004000818048008502e9004a
:1008b000fcff3a0008003700f88f420002003c00bd
:1008c0008000eb00000005008100d1000080d30013
:1008d0008502e800fcff3a000300e00002003b0054
:1008e00060001000e0801800000006004f89de0064
:1008f00082017800a400370081002000618055004b
:100900000b003d000b00200061fe2f000100e10004
:100910001d00340082817100610164008904d100ee
:100920000884d3000000e800faff3a0071002000bc
:1009300061006400030070000200600009003200e2
:1009400061044400e0844c000988a50005003200e1
:100950008b05e8006808e10002003a008904d10034
:100960000884d300f20f20000258e10005003d008a
:10097000c75ddd00f907b2008980750008007800c6
:10098000000006000bf827008b007800000005002f
:10099000c70ade00f107b200f50fb200080032000e
:1009a000e1cf4200020032000170a00024000500e7
:1009b000810f7000010032000408050044000500aa
:1009c000810f700002003a00140005008502e90062
:1009d0000000400081c04800fcff3b000170a00007
:1009e000240005000004be00e9ff07000003be006c
:1009f0000405be000200be00e5ff0700844f75003d
:100a0000000006000200be006450e1000500360050
:100a10006420e100020036000968a30001003a00ea
:100a20000800be000160a0004f0678004f05be0020
:100a30004f04be0000000600f0ff2f00f1ff27006a
:100a4000f9ff3700889fbe008a9fbe008c1f780088
:100a5000e4ff0700ebff330003866c006450e10005
:100a6000240032006420e100270032006150e100e0
:100a7000220032006120e100210032008b8542001b
:100a8000eb07b1000134b800003ab8000804420096
:100a900089844a00013ab8000030b80088804000dc
:100aa00009014a0004003300000040008180480032
:100ab000020149008b05e900c909dd0083017000ce
:100ac0000100320013002000c814de004814dd00cd
:100ad0004709de001200b200c808de00088470007a
:100ae00085ff070001f0a1000cf0a70001f0a000b5
:100af000cdff37006120e100cfff32000801be00ca
:100b00000200be00f7ff37006150e100fcff3a0031
:100b1000c9ff37000001eb005a003700889fbe0074
:100b20008a9fbe00841f7800aeff07004f00780048
:100b300011003300f0ff2f00838f6c0006003b0094
:100b4000040565000a00a7000800370009f0a600a8
:100b50001000200008003700820f5400838f5c00d3
:100b6000030039001000200001003e0000002000ba
:100b700009f0a7000000ea004f05be004f04be00c8
:100b80000000e00000000600881f780003047800e1
:100b90000300e00007003d0060001000e080180046
:100ba00060011900e081190002003b0001f02d00f6
:100bb000030037000400070008f0a70001f0a000c0
:100bc0004f04780000000600889fbe008a9fbe0088
:100bd000008270000402710004827100260032005d
:100be0000004be000200be006011b8006b092000c6
:100bf000950220000182cf000a0039000541b100b2
:100c00000082cf00070039000541b1000982cf0002
:100c1000040039000541b1000882cf00010039000d
:100c20000541b10005425200120032000a003b00ab
:100c300082817100610164008100d1000080d300d5
:100c40008984d3000884d3008b05e8000442e800bf
:100c5000f7ff3a00070037000804440089844c007d
:100c600000004800818048008b05e9000442e9004b
:100c7000f9ff3a0020ff07004f05be004f04be00f9
:100c800000000600889fbe008a9fbe008c9fbe00a9
:100c9000820578000004be003dff07000800be008a
:100ca0006420e1000700390002003a00f1ff27004c
:100cb000f0ff2f000160a0001202200072418800a6
:100cc000550037006120e10003003a000b00a70047
:100cd00001f823005000370001f0a10002002100bc
:100ce00093642400defe07000800be000400350007
:100cf000b2fd2000930c24004b0007000004be004e
:100d00000005eb000b00a6004f0dde0001f0a10076
:100d10000004be0032982f0023ea230049ff070099
:100d20000001eb0003f023000b00a70003f82300f1
:100d30002cfe0700ccfe07000000a7000a00a2005e
:100d4000eafe07000b00e000030032000200200072
:100d500003f0230022fe070001f0a2000006be00ff
:100d6000020020009304240036ff07000801be00a3
:100d70001cfe0700809fbe000c00be0022a22a00bd
:100d8000d3a723002fff07004f01be0015fe070069
:100d90000004be0001f0a10002002000039823001f
:100da000affe07000800be00190035000001be00bc
:100db00024ff07000006be00b2c52900e36223003d
:100dc00020ff070022222b00f3942b0005fe0700d2
:100dd0000c01be001bff0700e273280083c0230044
:100de00000fe07000c01be0016ff070042aa2a0001
:100df000a3e22b00fbfd07000c01be0011ff070062
:100e00000801be000fff07000801be00f5fd070046
:100e10000a00a70001f0a2004f06be004f05be0069
:100e20004f04be0000000600040020000000370050
:100e3000889fbe008a9fbe008c1f78004f26dd0071
:100e4000e8fe0700effe33006120e10043003200be
:100e50006250e10041003e003e0039006420e100a4
:100e60003c003200058255000f003b000402e80000
:100e700038003a00800f5300818f5b00350034004a
:100e80000800be0003f0a10001f0a60003f0a000de
:100e90000cf0a700d3fd0700e3fe37000603430074
:100ea00087834b000c4646000005530081855b009c
:100eb000020033000a03be000c00a0000402e90097
:100ec000f6ff3b00850578000602430087824b0051
:100ed00004003a006000b80009f0a70001f0a0008b
:100ee000d1fe37000002520081825a000704e00060
:100ef000040033000603430087834b008b05e900a1
:100f0000faff3700090578000604be000203be00a0
:100f10006011b80078fe0700e00f5200e08f5a0021
:100f20000700350002003c000c08a300040032005a
:100f30000601be0003f0a0000cf0a700a9fd070009
:100f40000a85680001f0a1000af0a70001f0a000e6
:100f5000b5fe37000800be00b3fe370010022000c7
:100f60000cf0a60070418800b3fe370080017800c5
:100f700002003700815978000201e9000200e00018
:080f8000fcff3a00000006002e
:020000040000fa
:100f88000000fa0001208000f08f2f000080600030
:100f980000a0a000002088000000000001208000c0
:100fa800000e20008080600000082000808f500024
:100fb800faff3a000164a8008120800000fc2f009d
:100fc800008060008020880081208000000c2000c4
:100fd800010070008020880091208000800320009c
:100fe800010070009020880012e4a8009120800081
:100ff800f08f2f00808060000050200001007000fa
:10100800902088009120800080ff2f0000806000e1
:101018000020a0009020880012c4a8003120800081
:10102800f0ff21000080600000e0a0003020880070
:101038000004a800c1208000c0ff2f0000806000cd
:10104800c020880000fe2f008021880000042000b6
:1010580000228800802180000030a00080218800c4
:10106800002280000030a1000022880001218000b9
:1010780000ff2f00008060000000a0000021880011
:101088001404a800c120800030ff2f0000806000f9
:10109800c02088000006200020228800202280002e
:1010a8000030a1002022880001218000f0f02f00ec
:1010b800008060000050a000002188001424a800cf
:1010c800c1208000f0fc2f0000806000c020880054
:1010d8000008200040228800402280000030a10043
:1010e8004022880001218000f00f2f0080806000de
:1010f8000030200001007000002188001444a8007e
:10110800c1208000f0f32f0000806000c02088001c
:10111800000a200060228800602280000030a100c0
:101128006022880001218000f0ff2000008060001c
:1011380000e0a000002188001464a800c1208000fd
:10114800f0cf2f0000806000c0208800000c200035
:1011580080228800802280000030a1008022880040
:101168001121800000ff2f00008060005000b300b4
:10117800102188001484a8000004a9000120800020
:10118800f08f2f0000806000002088000000000021
:1011980001208000000e2000008060000000e000b8
:1011a800fbff3a002a24ef005021800040218800ec
:1011b8004021800010218800102180000021880033
:1011c80030e4a80031e4a90032e4a90033e4a9001e
:1011d80034e4a90035e4a90036e4a80080218000a1
:1011e8003000b30080218800b02180003000b300b7
:1011f800b02188002024ef000a24a9009860a800e4
:101208000c04a8000c24a8000080fa0000000600c6
:101218000000fa00e023ef0000022200001c880012
:1012280020442000401c880070002000501c8800ca
:1012380060042000101c880000782000201c880012
:1012480081e3a800e023ef0000022000c01c880012
:1012580000442000001d880070002000101d880038
:1012680020022000d01c880000782000e01c8800a4
:1012780099e3a8000080fa00000006000e00fa00ba
:10128800600798006000b800008fbe006000b800da
:1012980020079800310798006000b80040079800c0
:1012a800510798006e00900020409000e34f5000d6
:1012b8004a003a006e00900020019000b0019000b2
:1012c80000002000c1ff210002027800030178001d
:1012d80080017800010078000302620000006100cc
:1012e8008000eb00c000dd00000020000001be000f
:1012f8006120b80000017100818171004018de0092
:1013080001002000008fbe003200200003002000f2
:101318001e0f41005e9749006e009000200190006a
:10132800b001900000fc2f0031002000020278007c
:101338000301780080017800010078000302620050
:10134800000061008000eb00c000dd00000020000c
:101358000001be006120b8000001710081817100a8
:101368004a1add004610de0000007200c618de00d2
:1013780020079800310798006e009000b000900098
:10138800200090004a09dd00c601de0083017100db
:101398004a01dd00f0ff2f00010020000202780062
:1013a80003017800800178000100780003026200e0
:1013b800000061008000eb00c000dd00000020009c
:1013c8000001be006120b800000171008181710038
:1013d8004207980053079800170037006e009000e6
:1013e80020019000b0019000f07f20000100200053
:1013f800020278000301780080017800010078007b
:1014080003026200000061008000eb00c000dd0004
:10141800000020000001be006120b800000171003a
:10142800818171004218dd00ce10de00810070005d
:101438004210dd00008fbe006e009000104090004a
:10144800e24f500024003a006e00900020409000c7
:10145800e34f500006003a004e009000de00900076
:101468000090a0004007980051079800010037003d
:101478001e10a0006e009000304090000080fb001d
:101488009e0078004401dd0000782400000041003f
:10149800010878006e009000304090000080fb004a
:1014a800ae0090004401dd002078240000004100d7
:1014b800010878006e009000304090000080fb002a
:1014c800ce0090004401dd00407824000000410077
:1014d800010878006d0037006e0090000050900001
:1014e8000081fb008001eb00f000200001002000db
:1014f800020278000301780080017800010078007a
:1015080003026200000061008000eb00c000dd0003
:10151800000020000001be006120b8000001710039
:10152800818171004e009000de00900000004100b3
:101538008180490040079800510798006e0090008c
:10154800304090000080fb009e0078004401dd00e0
:101558000078240000004100010878006e00900027
:10156800304090000080fb00ae0090004401dd0098
:101578002078240000004100010878006e009000e7
:10158800304090000080fb00ce0090004401dd0058
:101598004078240000004100010878006e009000a7
:1015a800304090000080fb00ee00900091489000d1
:1015b8008180fb004809dd00ee0090008148900022
:1015c8008180fb00810041004401dd006078240037
:1015d80000004100010878006e0090003040900043
:1015e8000080fb00ee009000b14890008180fb0075
:1015f8004809dd00ee009000a14890008180fb00c2
:10160800810041004401dd00807824000000410091
:10161800010878006e009000304090000080fb00c8
:10162800ee009000d14890008180fb004809dd0061
:10163800ee009000c14890008180fb0081004100cd
:101648004401dd00a0782400000041000108780072
:101658006e009000304090000080fb00ee0090008b
:10166800f14890008180fb004809dd00ee00900001
:10167800e14890008180fb00810041004401dd00c9
:10168800c078240000004100010878003064a800f8
:101698003664a8000080fa00000006001400fa0072
:1016a800500798006107980072079800030f980088
:1016b800140f9800de009000001020000001780050
:1016c800110009008200d800004f7800de00900069
:1016d8000010200000017800110009008200d800e5
:1016e8008000fd0010479800ee00900000102000d8
:1016f80000017800110009008200d80020479800f6
:10170800ee00900000102000000178001100090090
:101718008200d8008000fd0030479800fe0090004d
:101728000010200000017800110009008200d80094
:1017380040479800fe00900000102000000178004b
:10174800110009008200d8008000fd005047980071
:101758008e08900000102000000178001100090098
:101768008200d800604798008e0890000010200082
:1017780000017800110009008200d8008000fd00f7
:10178800704798009e089000001020000001780023
:10179800110009008200d800004f98009e089000b0
:1017a8000010200000017800110009008200d80014
:1017b8008000fd00104f98001083200011c0b30076
:1017c800014878002083200041c0b3000148780018
:1017d800308320008040eb00014878001000200092
:1017e80001002000a0418800b141880080832000ca
:1017f8001e48780090832000ae4090000148780091
:10180800a08320004e41900002487800b083200059
:10181800ee40900001487800c08320000e499000f7
:1018280002487800d08320008040eb00014878000f
:10183800e08320008040eb0001487800f08320001e
:101848008040eb00014878000084200081c0b3008c
:10185800014878000083200088fe070030842000bb
:1018680011c0b300014878004084200041c0b30093
:10187800014878005084200061c0b3000148780016
:10188800700020000100200030428800414288009a
:10189800a08420009e48900001487800b084200071
:1018a8000e49900002487800c08420008040eb0078
:1018b80001487800d08420008040eb00014878007f
:1018c800e08420008040eb0001487800f08420008c
:1018d8008040eb0001487800008520008040eb0044
:1018e80001487800108520008040eb00014878000e
:1018f8002085200081c0b3000148780020842000a2
:101908005efe07000080fa00000006000a00fa00e8
:10191800000f7800110798002207980033079800f5
:1019280044079800000000008021800068006000e3
:101938000000e000fcff3a00b02180006800600071
:101948000000e000f8ff3a001e0078004e02900008
:10195800be0190002e0190009e0090004fff0700ee
:101968000080fa00000006003600f800809fbe00e4
:10197800829fbe00849fbe00869fbe000000fa00c2
:1019880050208000620060000000e0003900320052
:1019980000218000620060000000e00007003200c3
:1019a8004085200051c0b3000148780070852000b0
:1019b80011c0b300014878002c00370000218000d6
:1019c800640060000000e00007003200408520004d
:1019d80051c0b300014878007085200021c0b300d1
:1019e800014878002100370000218000680060006d
:1019f8000000e000070032004085200051c0b3001d
:101a0800014878007085200031c0b3000148780093
:101a18001600370000218000700060000000e00020
:101a2800070032004085200051c0b300014878000b
:101a38007085200041c0b300014878000b003700d2
:101a48000121800000022000008060000000e0000a
:101a5800060032004085200051c0b30001487800dc
:101a68007085200051c0b300014878000a24a900fd
:101a78000500370050208000610060000000e00091
:101a8800010032000a04a9008860a9001d010700ae
:101a98000080fa004f03be004f02be004f01be0097
:101aa8004f00be003600f900004006000a00fa00a8
:101ab800400798000000eb00100798000000eb00ba
:101ac800000f78006000b8002007980031079800e0
:101ad8004e009000304090000080fb00c400dd0004
:101ae8000078240000804000100078006100600049
:101af800100798001e0090000000e0001f003a0048
:101b08004e009000304090000080fb00c400dd00d3
:101b1800007824000080400090007800c0ff210079
:101b2800008060004200de008000eb004e01900063
:101b380020019800310198004e009000b0009000fc
:101b48002000900000007800201188004e009000ce
:101b580041c0b300214098004e00900030409000f2
:101b68000080fb00c400dd000078240000804000f5
:101b780010007800620f60006b0037004e00900084
:101b8800304090000080fb00c400dd000078240095
:101b980000804000100078006101b800c0ff2100fb
:101ba800010020000202780003017800800178001b
:101bb8000100780003026200000061008000eb0071
:101bc800c000dd00000020000001be006120b80058
:101bd8000001710081817100220798003307980085
:101be8002e009000be009000c000dd000000200024
:101bf8004e01900020019800310198004e0090009d
:101c0800304090000080fb004400dd008080e80048
:101c18000078240000804000100078006101b800be
:101c2800f0ff200001002000020278000301780084
:101c38008001780001007800030262000000610062
:101c48008000eb00c000dd00000020000001be00a5
:101c58006120b8000001710081817100220798009d
:101c6800330798004e00900020019000b0019000ca
:101c78002e029000be0290004628dd00ca20de0039
:101c8800810070004620dd0002004000838048008b
:101c98004e01900020019800310198004e009000fc
:101ca800304090000080fb004400dd00e40040006c
:101cb8000078240000804000100078004a00de0010
:101cc8008000eb0020079800310798004e00900034
:101cd80020019000b00190002e009000be009000fe
:101ce80002004000838048004e01900020019800c7
:101cf800310198004e00900031c0b3002140980097
:101d08004e009000304090000080fb004400dd0051
:101d1800e400400000782400008040009000780033
:101d280000202000008f60001e007800e10f5000a6
:101d380004003a004e00900021c0b3001140980002
:101d48006b0037004e00900011c0b300114098009e
:101d58004e009000304090000080fb004400dd0001
:101d6800e600400000782400008040001000780061
:101d7800804078004e009000014898004e00900086
:101d8800304090000080fb004400dd00e600400089
:101d98000078240000804000100078004800de0031
:101da800804078004e009000114898004e00900046
:101db800304090000080fb004400dd00e800400057
:101dc80000782400008040001000780080407800ef
:101dd8004e009000214898004e009000304090003e
:101de8000080fb004400dd00e8004000007824008b
:101df80000804000100078004800de008040780035
:101e08004e009000314898004e00900030409000fd
:101e18000080fb004400dd00ea0040000078240058
:101e28000080400010007800804078004e0090004c
:101e3800414898004e009000304090000080fb0020
:101e48004400dd00ea0040000078240000804000e3
:101e5800100078004800de00804078004e009000b6
:101e6800514898004e009000304090000080fb00e0
:101e78004400dd00ec0040000078240000804000b1
:101e880010007800804078004e009000614898006b
:101e98004e009000304090000080fb004400dd00c0
:101ea800ec0040000078240000804000100078001a
:101eb8004800de00804078004e009000714898008d
:101ec8004e009000304090000080fb004400dd0090
:101ed800e4004000007824000080400010007800f2
:101ee80000407800ef4060004e00900001509800dc
:101ef8004e009000304090008e0007000080fa00ed
:101f0800000006000000fa0040852000104078001c
:101f1800e54f50001c003a00708520001040780002
:101f2800e14f500018003a0040852000dffe07000e
:101f3800c0852000104078000080fb002011880038
:101f4800d0852000104078000080fb002011880018
:101f5800c085200010407800614060000080fb00d0
:101f6800610060004800dd00211680000180a100aa
:101f780001007000201688004085200061c0b30071
:101f8800014878006900370040852000104078003b
:101f9800e54f500012003a0070852000104078008c
:101fa800e24f50000e003a0040852000bffe0700b7
:101fb800c0852000104078000080fb0020118800b8
:101fc800d0852000104078000080fb002011880098
:101fd8004085200061c0b3000148780053003700f5
:101fe8004085200010407800e54f50001b003a0063
:101ff8007085200010407800e34f500017003a0029
:1020080040852000a9fe0700c08520001040780008
:102018008080fb00d0852000104078000080fb0005
:102028004800dd000080400040418800c085200055
:10203800104078000080fb0020118800d085200027
:10204800104078000080fb002011880040852000a7
:1020580061c0b30001487800340037004085200093
:1020680010407800e54f500012003a0070852000bb
:1020780010407800e44f50000e003a0040852000e0
:102088008afe0700c0852000104078000080fb0011
:1020980020118800d0852000104078000080fb00c7
:1020a800201188004085200061c0b30001487800f5
:1020b8001e0037004085200010407800e54f500092
:1020c8001a003a007085200010407800e54f500053
:1020d80016003a004085200074fe0700c0852000e5
:1020e800104078008080fb00d085200010407800e8
:1020f8000080fb004800dd0000804000604188004f
:102108004085200061c0b30001487800c0852000e8
:10211800104078000080fb0020118800d085200046
:10212800104078000080fb00201188000080fa0031
:10213800000006000400fa0020479800708520007f
:10214800104f780000218000620060000000e0006d
:10215800050032001e407800e14f500002003a00ae
:102168002024a900240037000021800064006000ba
:102178000000e000050032001e407800e24f5000e9
:1021880002003a002044a9001b003700002180000b
:10219800680060000000e000050032001e40780082
:1021a800e34f500002003a002064a90012003700f3
:1021b80000218000700060000000e000050032008f
:1021c8001e407800e44f500002003a002084a90025
:1021d8000900370001218000000220000080600013
:1021e8000000e000040032001e407800e54f500077
:1021f80001003a0020a4a9000080fa0000000600af
:102208000000fa006017210000000100144180005e
:1022180003418000f2408000e1408000d04080000f
:10222800bafd07000080fa00000006000200fa006c
:10223800004f780000ff2f00d7f8070000012800a2
:102248002008880000352c0010088800c002a9006a
:10225800c022a900c102a90060042000103a880029
:1022680070052000103a880042c7a900a1358000f7
:1022780000fe2f00008060008001b300a0358800b8
:102288007136800000fe2f00008060000040a00032
:10229800703688002135800000fe2f000080600025
:1022a8005001b30020358800a136800000fe2f00c1
:1022b800008060003000b300a03688006004200071
:1022c800103a880070052000103a880042c7a8001c
:1022d800ae0007002afb0700cdfb07000080fa00cc
:1022e800000006000000fa00889fbe008a9fbe001a
:1022f8008040800091408000a2702d0033c22300ee
:10230800b6f807008040880091408800804080002f
:102318009140800002002000030a2400aef8070064
:10232800a0408800b1408800804080009140800033
:1023380018c0b30002002000030a240046f9070071
:102348000000e000010034000044eb000804e00055
:10235800060032001a28ef001c28ef001e28ef00a4
:102368002028ef002228ef0084003700104080006a
:102378002140800002002000832c2400aff90700d0
:102388000004be003440800045408000a04080002a
:10239800b14080000001be000400be00a7f907009c
:1023a800daf907000001be000800be00a3f9070023
:1023b8002bf9070000007800d0408800104080000a
:1023c8002140800002002000832c24009bf9070094
:1023d8000004be003440800045408000a0408000da
:1023e800b14080000001be000400be0093f9070060
:1023f8000002be0050408000614080000001be0025
:102408000400be0075f80700c0f907000001be000f
:102418000800be0089f9070011f9070000007800dc
:10242800e040880010408000214080000200200029
:10243800832c240081f907000004be00344080008a
:1024480045408000a0408000b14080000001be00ef
:102458000400be0079f907000005be005040800066
:10246800614080000001be005cf807000001be006a
:102478000a00be0059f80700a4f907000001be00d1
:102488000800be006df90700f5f8070000007800a5
:10249800f0408800104080002140800002002000a9
:1024a800832c240065f907000004be003440800036
:1024b80045408000a0408000b14080000001be007f
:1024c8000400be005df907000005be005040800012
:1024d80061408000020020000304240057f907002f
:1024e8000001be000a00be003cf8070087f907009b
:1024f8000001be000800be0050f90700d8f8070028
:1025080000007800004188001040800021408000d1
:1025180002002000832c240048f907000004be00b4
:102528003440800045408000a0408000b1408000d9
:102538000001be000400be0040f907000005be000f
:102548005040800061408000020020000308240001
:102558003af907000001be000a00be001ff8070094
:102568006af907000001be000800be0033f9070041
:10257800bbf8070000007800104188004f05be0036
:102588004f04be000080fa00000006000000fa00b8
:102598002002a9000111800090ff2f000080600038
:1025a8000011880020a2a9002062a90020c2a90069
:1025b800400120004011880023a2a90023e2a900bd
:1025c80011118000f0f32f000080600010118800c6
:1025d8009580a8009560a80021e2a8002342a800e1
:1025e8000080fa00000006003600f800809fbe0058
:1025f800829fbe00849fbe00869fbe003400f80004
:1026080000002000a00188000000fa0030118000be
:10261800004078000ee8b700004080000000e000ad
:1026280031003400004080000000e900e180200013
:10263800914078008100fb0000014000007c2400ec
:102648000000410001087800004080000000e80018
:102658000040880000408000e60f5000220034004f
:102668000028ef00003e8200c800dd00103e820016
:1026780000804000cf80de009af8070002002000aa
:10268800832c240032f8070010408800214088007d
:10269800203e8200c800dd00303e820000804000fd
:1026a800cf80de008ff8070002002000832c240072
:1026b80027f807005040880061408800403e8200ab
:1026c800c800dd00503e820000804000cf80de0060
:1026d80084f8070002002000832c24001cf807005f
:1026e8003040880041408800e18020009140780017
:1026f80050c7b30080cf500006003a000040800069
:102708000000e00003003a00004080000000e800fc
:10271800004088008560a9000080fa003400f900b4
:102728004f03be004f02be004f01be004f00be0067
:102738003600f900004006003400f800881f7800d1
:1027480008002000a80188004f0478000000fa0063
:102758008580a9000080fa003400f90000400600d6
:102768000000fa00b20020008000eb00c07c2400ca
:10277800fcf90700c07c24008040eb000148780089
:10278800c040800080407800d07c24000148780058
:102798000080fa00000006000400fa00a07e240071
:1027a800b1c3b300014878000000eb00000f7800c7
:1027b800080037001e01e800c07c24001e0040000d
:1027c80090407800a07e2400000041000148780075
:1027d8001e0fe8001e007800e20f5000f5ff3400dd
:1027e800a07e2400100798000080fa000000060070
:1027f8000000fa0060092000303a880050002000ec
:10280800203a880010c0b30088fe070000000000ce
:1028180020048000680060000000e000fcff320037
:102828008460a900c402a80075fe0700c402a900bc
:10283800200480004300de00614060000080fb004f
:102848006100600000004000211680000110a10016
:10285800010070002016880000000000ecff37001f
:020000040000fa
:10286800c04700003600000000000000000800001b
:1028780018000000000000003008000036000000ca
:10288800000000001808000016000000000000000a
:102898008047000040000000000000002e080000f3
:0c28a80002000000000000000000000022
:020000040000fa
:0200000401f009
:04000400ffff0000fa
:020000040000fa
:0200000401f009
:04000800ffff0000f6
:020000040000fa
:0200000401f009
:04000c007bff000076
:020000040000fa
:0200000401f009
:04001000bdff000030
:020000040000fa
:0200000401f009
:040014007fff00006a
:020000040000fa
:0200000401f009
:04001800feff0000e7
:020000040000fa
:0200000401f009
:04001c00dfff000002
:00000001FF
